:020000040800F2
:1000000000000220510F0008990F0008990F000806
:10001000990F0008990F0008990F000800000000D0
:10002000000000000000000000000000990F000820
:10003000990F000800000000990F0008990F0008B0
:1000400000000000000000000000000000000000B0
:1000500000000000000000000000000000000000A0
:100060000000000000000000000000000000000090
:100070000000000000000000000000000000000080
:100080000000000000000000000000000000000070
:100090000000000000000000000000000000000060
:1000A0000000000000000000000000000000000050
:1000B0000000000000000000000000000000000040
:1000C0000000000000000000000000000000000030
:1000D0000000000000000000000000000000000020
:1000E0000000000000000000000000000000000010
:1000F0000000000000000000000000000000000000
:1001000000000000000000000000000000000000EF
:1001100000000000000000000000000000000000DF
:1001200000000000000000000000000000000000CF
:1001300000000000000000000000000000000000BF
:1001400000000000000000000000000000000000AF
:10015000000000000000000000000000000000009F
:10016000000000000000000000000000000000008F
:10017000000000000000000000000000000000007F
:08018000000000000000000077
:10018800044B05481B1A062B02D9044B03B1184728
:10019800704700BF33040020300400200000000036
:1001A80005490648091A891001EBD171491002D096
:1001B800034B03B118477047300400203004002077
:1001C8000000000010B5064C237843B9FFF7D8FFAC
:1001D800044B13B10448AFF300800123237010BD12
:1001E8003004002000000000B00F000808B5084BDC
:1001F8001BB108490848AFF300800848036813B9E1
:10020800BDE80840CCE7064B002BF9D09847F7E744
:100218000000000034040020B00F00083004002063
:1002280000000000002301461A46184600F042B8B4
:1002380038B50A4C0A4D641BA4100AD004F1804357
:10024800013B05EB8305013C55F804399847002C20
:10025800F9D1BDE8384000F0ADBE00BFEC0F000892
:10026800E80F000870B50F4E0F4D761BB61018BF7B
:10027800002405D0013455F8043B9847A642F9D12B
:100288000A4E0B4D761B00F08FFEB61018BF0024E7
:1002980006D0013455F8043B9847A642F9D170BD01
:1002A80070BD00BFE00F0008E00F0008E80F00086D
:1002B800E00F00082DE9F047254C2568D5F848419E
:1002C8000646884692469946C4B360681F2817DCDC
:1002D800431C76B104EB80050122C5F888A0D4F848
:1002E800881182401143022EC4F88811C5F808917C
:1002F8001ED00230636044F820800020BDE8F087FB
:10030800144B03B34FF4C870AFF300800446D0B168
:10031800D5F84831002780E88800C5F848413846B4
:100328000123C4F88871C4F88C71002EE1D0D1E79C
:10033800D4F88C110A43C4F88C21DAE705F5A674C1
:10034800C5F84841C1E74FF0FF30BDE8F08700BF6E
:10035800C80F00080000000000207047F0B58DB0FD
:1003680004AA0446431E694603306F461646B7EE94
:10037800007A13F8015F07EE905AF8EEE77A8342A5
:1003880077EE876AF1EE677A77EEC77AE1EC016A71
:10039800E2EC017AEDD100F06FF908AD0023F8180E
:1003A800F118D0ED007A91ED007AEA1867EE877AB5
:1003B8000433102BC2ED007AF1D100F065F9002169
:1003C8006B5C635401311029FAD12246722000F087
:1003D8007DF800200DB0F0BD08B500F0E3F800F09E
:1003E800FBF800F035F900F079F900F067F8064AF3
:1003F8001021702000F04AF8044A0021782000F00B
:1004080045F800F085F8FCE765030008610300087B
:100418000120704770B5013113469C1AA04201DCD7
:10042800002070BD0D7811F8014CA5F13006F6B228
:10043800092E0CD81E70A4F13005EEB2092E15D87D
:100448001C7844EA05141C7002310133E5E7A5F174
:100458004106052E02D8373D1D70ECE7A5F161066F
:10046800052E01D9012070BD573DF5E7A4F14105DE
:10047800052D02D8A4F13705E2E7A4F16105052DA1
:10048800F0D81D78573C45EA0414DCE7F0B5094D6F
:100498002B680F2B0CDCBF290AD80C245C43064FB1
:1004A8003E19385501337160B2602B600020F0BDF1
:1004B8000120F0BD0C0500204C040020024A002158
:1004C8007620FFF7E3BF00BF190400082DE9F041CB
:1004D80015460F4600F0F2F80C4E2C46631B9F425F
:1004E80004DC0A20BDE8F04100F0E8B8A04614F8A2
:1004F800013B1B09F05C00F0E1F898F8003003F0CC
:100508000F03F05C00F0DAF8E8E700BFCC0F000852
:10051800F0B5ADF5137D00F0BFF8204B204A1B68FD
:1005280000240C219C4203DB07D10DF5137DF0BD9F
:1005380001FB04F5AD5C854223D1194F0C2600253B
:1005480006FB04767368B5EB430F1CD300F0A4F8E0
:100558000A2801D00D28E8D10C2303FB047402AA51
:1005680032A96068FFF756FF0028DED1A36802A809
:10057800984701AA8DF8040001217A20FFF7A6FF09
:10058800D3E70134CEE700F087F80A28CDD00D284C
:10059800CBD032ABE8540135D4E700BF0C050020BE
:1005A8004C04002010B592B003230024069306A83B
:1005B8004FF4A023079309940D9400F0A7F80F2394
:1005C80001930521012301A802930394049405943F
:1005D80000F030FA12B010BD30B589B04FF4C063E6
:1005E800039302230025164C049306930122072344
:1005F800019505920793236B124813432363236BDA
:100608001340019303A9019B00F0ACFA0E480F4A6E
:1006180002954FF4164380E80C000C238560C560F2
:10062800056185614361636C43F010036364636C27
:1006380003F010030293029B00F07AFB09B030BD6F
:10064800003802400000024024050020001001404C
:100658007FB54FF480530193012302930023039342
:1006680001A902230348049300F07CFA07B05DF85F
:1006780004FB00BF0000024001224FF480510148F2
:1006880000F050BB0000024000224FF480510148A6
:1006980000F048BB0000024013B5074C41F2883314
:1006A80001220DF10701204600F003FC0028F5D1D6
:1006B8009DF8070002B010BD2405002007B502A967
:1006C80041F2883301F8010D0122034800F0AEFB26
:1006D80003B05DF804FB00BF24050020064BD3F8E7
:1006E800882042F47002C3F88820D3F8882042F4A6
:1006F8007002C3F88820704700ED00E0024B1868CC
:10070800421C1A60704700BF100500200368F7B547
:10071800DC0701463BD40B68980700F186800B681C
:100728001B0700F1D1800B685F072AD500230193CE
:100738008E4B8F4C1A6C42F080521A641B6C03F07B
:1007480080530193019B236843F480732360FFF770
:10075800D5FF05462368DA0540F1D8808B68834CBD
:10076800012B40F0DA80236F43F001032367FFF782
:10077800C5FF7E4C054641F28836236F9B0740F142
:10078800ED808A69002A40F0F980002015E0774B57
:100798009A6802F00C02042A07D09A6802F00C0248
:1007A800082A0CD15B685A0209D5704B1B689B0359
:1007B800B1D54B68002BAED1012003B0F0BD4B681A
:1007C8006A4CB3F5803F11D1236843F4803323602A
:1007D800FFF794FF654C054623689F039BD4FFF7FA
:1007E8008DFF401B6428F7D90320E6E7B3F5A02F57
:1007F80004D1236843F480232360E5E7226822F4C8
:1008080080322260226822F480222260002BDFD10D
:10081800FFF774FF054623689E037FF57CAFFFF75B
:100828006DFF401B6428F6D9DEE7504B9A6812F03A
:100838000C0F07D09A6802F00C02082A16D15B68E0
:100848005D0213D4494B1A68940702D5CA68012A75
:10085800B2D11C68F82292FAA2F2B2FA82F00A69BE
:10086800824024F0F80002431A6058E7CA68414BF6
:10087800DAB101221A60FFF741FF3C4C05462368B4
:1008880098070CD52068F82393FAA3F3B3FA83F2F8
:100898000B69934020F0F802134323603FE7FFF70A
:1008A8002DFF401B0228EAD99EE71A60FFF726FFB2
:1008B8002E4C054623689A077FF531AFFFF71EFFD8
:1008C800401B0228F6D98FE74A692B4B7AB10122DF
:1008D8001A60FFF713FF254C0546636F9E073FF527
:1008E80022AFFFF70BFF401B0228F6D97CE71A60FE
:1008F800FFF704FF1D4C0546636F98077FF513AF9C
:10090800FFF7FCFE401B0228F6D96DE7FFF7F6FE5D
:10091800401B02287FF61EAF66E7052B04D1236F24
:1009280043F0040323671EE7226F22F001022267C7
:10093800226F22F004022267002B7FF418AFFFF722
:10094800DDFE41F288360546236F9F077FF519AF14
:10095800FFF7D4FE401BB042F6D945E7FFF7CEFEBD
:10096800401BB0427FF609AF3EE700BF00380240A7
:100978000070004000004742800E47422B4CA3689D
:1009880003F00C03082B3FF417AF294D0023022A6C
:100998002B603ED1FFF7B2FE06462368980132D499
:1009A80047F6C07797FAA7F74FF44032B7FA87F7B8
:1009B80092FAA2F24FF07060B2FA82F690FAA0F0C2
:1009C8000A6ACB6913434A6A02FA07F78A6A520825
:1009D800013AB2403B431343CA6AB0FA80F002FAC4
:1009E80000F00343636001232B60FFF787FE0F4984
:1009F80004460B689A013FF5C8AEFFF77FFE001B5F
:100A08000228F6D9F0E6FFF779FE801B0228C4D940
:100A1800EAE6FFF773FE014623689B017FF5B5AE52
:100A2800FFF76CFE401A0228F6D9DDE600380240CE
:100A380060004742F8B5494B1A6802F00F028A4233
:100A480005461AD32A68900720D4D20726D4434BE8
:100A58001A6802F00F02914270D32868430775D4D0
:100A680010F0080008D03E4A2969936823F46043CF
:100A780043EAC10393600020F8BDCAB21A701B682C
:100A880003F00F039942DDD00120F8BD3448AC686B
:100A9800836823F0F00323438360D6E76A68304B0A
:100AA800012A1DD11B6813F4003FEDD02C4CA3681C
:100AB80023F003031343A360FFF720FE6B68012BA9
:100AC800064641F2883715D1A36803F00C03042BBE
:100AD800BDD0FFF713FE801BB842F5D90320F8BD3F
:100AE800901E01281B6802D813F0007FDDE713F081
:100AF800020FDAE7022B0AD1A36803F00C03082BD4
:100B0800A5D0FFF7FBFD801BB842F5D9E6E7032B1C
:100B18000FD1A36803F00C030C2B98D0FFF7EEFD60
:100B2800801BB842F5D9D9E7FFF7E8FD801BB8422A
:100B3800D4D8A36813F00C0FF6D188E7CAB21A709C
:100B48001B6803F00F0399429ED186E7044AE968BF
:100B5800936823F4E0530B43936081E7003C024021
:100B6800003802402DE9F04F85B00B68DFF8AC8102
:100B7800684ADFF8AC91019300234FF0010E019C05
:100B88000EFA03FE0EEA0406B64540F0AE804C6845
:100B980024F01007022F16D14FEAD30A00EB8A0A75
:100BA80003F0070BDAF820504FEA8B0B4FF00F0CCD
:100BB8000CFA0BFC25EA0C0C0D6905FA0BF545EA55
:100BC8000C05CAF820504FEA430A0325D0F800B0B4
:100BD80005FA0AF5ED4304F0030C0BEA050B0CFAD1
:100BE8000AFC013F4CEA0B0C012FC0F800C011D8D9
:100BF800876807EA050BCF6807FA0AFC4CEA0B0777
:100C08008760476827EA0E0EC4F300179F4047EA3B
:100C18000E074760C7683D408F6807FA0AF73D43EB
:100C2800C560E50061D54FF0000BCDF80CB0D8F8E1
:100C38004470394D47F48047C8F84470D8F8447078
:100C480007F480470397039F23F0030707F18047C2
:100C580007F59C3703F0030CD7F808A04FEA8C0C73
:100C68004FF00F0E0EFA0CFEA8422AEA0E0E43D0E1
:100C780005F58065A84241D005F58065A8423FD0BA
:100C880005F58065A8423DD005F58065A8423BD0B2
:100C980048453BD005F50065A84239D005F5806583
:100CA800A84214BF0825072505FA0CF545EA0E05E4
:100CB800BD601568F74314F4803F0CBF3D403543D1
:100CC8001560556814F4003F0CBF3D40354355602E
:100CD800956814F4801F0CBF3D4035439560D56876
:100CE800A40254BF3D403543D5600133102B7FF437
:100CF80044AF05B0BDE8F08F5D46D5E70125D3E7E1
:100D08000225D1E70325CFE70425CDE70525CBE765
:100D18000625C9E7003C01400000024000380240B7
:100D2800001402400AB1816170470904FBE7000022
:100D380030B5002874D090F8393003F0FF020BB9B1
:100D480080F838200168C2680569C469242380F8DE
:100D58003930CB6823F40053CB600B6923F440533C
:100D680013430B618368CA682B43456922F4164212
:100D78002B4322F00C0223431343CB604B69826957
:100D880023F440731343B4F5004F4B614468254B7B
:100D980036D199424FEA4404234AB2FBF4F24FF0A9
:100DA8006404B2FBF4F503D003F58063994223D1C0
:100DB80004FB1522D3003233B3FBF4F303F007022C
:100DC8005B0002EB051203F4F87313448B600B69A4
:100DD80023F490430B614B6923F02A034B61CB68E2
:100DE80043F40053CB6020220023C36380F83920EA
:100DF80080F83A20184630BD04FB1523DB00DAE7FB
:100E0800A2006424084BB3FBF2F2B2FBF4F504FB36
:100E180015231B013233B3FBF4F303EB0513D5E7BA
:100E2800012030BD001001400080FC0A90F83930E4
:100E3800202B3CD1002938D0002A36D090F8383001
:100E4800012B34D0012380F838300023C3632123D9
:100E580080F839308284C284C28C036892B252B955
:100E68001A685206FCD5202380F83930002380F810
:100E7800383018467047C28C013A92B2C2848268F0
:100E8800B2F5805F0AD11A681206FCD50A88C2F347
:100E980008025A60036933B90231DDE71A6812069D
:100EA800FCD50A785A600131D6E701207047022044
:100EB800704790F83A30202B10B542D100293ED027
:100EC800002A3CD090F83830012B3AD0012380F822
:100ED80038300023C363222380F83A308285C285E4
:100EE800C38D9BB233B9202280F83A2080F838307D
:100EF800184610BDC38D013B9BB2C3858368B3F50B
:100F0800805F03680ED11A689406FCD502695B6895
:100F180022B9C3F3080321F8023BE1E7DBB221F869
:100F2800013BDDE71A689206FCD504695B684A1C38
:100F380014B90B701146D3E703F07F03F9E70120DA
:100F480010BD022010BD0000002103E00B4B5B58D0
:100F5800435004310A480B4B42189A42F6D30A4AC6
:100F680002E0002313600432084B9A42F9D3AFF32E
:100F78000080FFF777F9FFF72FFAFEE7EC0F00087C
:100F88000000002030040020300400206405002008
:100F9800FEE70000024B13B10248FFF743B9704760
:100FA8000000000039020008F8B500BFF8BC08BC12
:100FB8009E467047F8B500BFF8BC08BC9E4670470F
:100FC8000800002030313233343536373839414261
:080FD8004344454643000000BC
:080FE0009D0F0008F501000857
:040FE800CD0100082F
:100FEC00080000200000000000000000F4020020B7
:100FFC005C030020C403002000000000000000007F
:10100C0000000000000000000000000000000000D4
:10101C00000000000000000000000000DC0F0008D1
:10102C0000000000000000000000000000000000B4
:10103C0000000000000000000000000000000000A4
:10104C000000000000000000000000000000000094
:10105C000000000000000000000000000000000084
:10106C000000000000000000000000000000000074
:10107C000000000000000000000000000000000064
:10108C000000000000000000000000000000000054
:10109C0001000000000000000E33CDAB34126DE6F1
:1010AC00ECDE05000B00000000000000000000005A
:1010BC000000000000000000000000000000000024
:1010CC000000000000000000000000000000000014
:1010DC000000000000000000000000000000000004
:1010EC0000000000000000000000000000000000F4
:0400000508000F518F
:00000001FF
