:020000040800F2
:100000000000022039160008811600088116000839
:100010008116000881160008811600080000000003
:100020000000000000000000000000008116000831
:1000300081160008000000008116000881160008E3
:1000400000000000000000000000000000000000B0
:1000500000000000000000000000000000000000A0
:100060000000000000000000000000000000000090
:100070000000000000000000000000000000000080
:100080000000000000000000000000000000000070
:100090000000000000000000000000000000000060
:1000A0000000000000000000000000000000000050
:1000B0000000000000000000000000000000000040
:1000C0000000000000000000000000000000000030
:1000D0000000000000000000000000000000000020
:1000E0000000000000000000000000000000000010
:1000F0000000000000000000000000000000000000
:1001000000000000000000000000000000000000EF
:1001100000000000000000000000000000000000DF
:1001200000000000000000000000000000000000CF
:1001300000000000000000000000000000000000BF
:1001400000000000000000000000000000000000AF
:10015000000000000000000000000000000000009F
:10016000000000000000000000000000000000008F
:10017000000000000000000000000000000000007F
:08018000000000000000000077
:10018800044B05481B1A062B02D9044B03B1184728
:10019800704700BF33040020300400200000000036
:1001A80005490648091A891001EBD171491002D096
:1001B800034B03B118477047300400203004002077
:1001C8000000000010B5064C237843B9FFF7D8FFAC
:1001D800044B13B10448AFF300800123237010BD12
:1001E80030040020000000009816000808B5084BED
:1001F8001BB108490848AFF300800848036813B9E1
:10020800BDE80840CCE7064B002BF9D09847F7E744
:100218000000000034040020981600083004002074
:100228000000000081F0004102E000BF83F00043BD
:1002380030B54FEA41044FEA430594EA050F08BF79
:1002480090EA020F1FBF54EA000C55EA020C7FEA3D
:10025800645C7FEA655C00F0E2804FEA5454D4EBBA
:100268005555B8BF6D420CDD2C4480EA020281EA84
:10027800030382EA000083EA010180EA020281EABC
:100288000303362D88BF30BD11F0004F4FEA01310E
:100298004FF4801C4CEA113102D0404261EB41011D
:1002A80013F0004F4FEA03334CEA133302D05242A3
:1002B80063EB430394EA050F00F0A780A4F101045F
:1002C800D5F1200E0DDB02FA0EFC22FA05F2801899
:1002D80041F1000103FA0EF2801843FA05F359417F
:1002E8000EE0A5F120050EF1200E012A03FA0EFCFE
:1002F80028BF4CF0020C43FA05F3C01851EBE37128
:1003080001F0004507D54FF0000EDCF1000C7EEB44
:1003180000006EEB0101B1F5801F1BD3B1F5001F82
:100328000CD349085FEA30004FEA3C0C04F10104A1
:100338004FEA445212F5800F80F09A80BCF1004FCA
:1003480008BF5FEA500C50F1000041EB045141EA4C
:10035800050130BD5FEA4C0C404141EB010111F44D
:10036800801FA4F10104E9D191F0000F04BF0146F8
:100378000020B1FA81F308BF2033A3F10B03B3F1D6
:1003880020020CDA0C3208DD02F1140CC2F10C0266
:1003980001FA0CF021FA02F10CE002F11402D8BFC4
:1003A800C2F1200C01FA02F120FA0CFCDCBF41EA90
:1003B8000C019040E41AA2BF01EB0451294330BD5F
:1003C8006FEA04041F3C1CDA0C340EDC04F114043C
:1003D800C4F1200220FA04F001FA02F340EA030013
:1003E80021FA04F345EA030130BDC4F10C04C4F159
:1003F800200220FA02F001FA04F340EA0300294639
:1004080030BD21FA04F0294630BD94F0000F83F482
:10041800801306BF81F480110134013D4EE77FEA65
:10042800645C18BF7FEA655C29D094EA050F08BFB1
:1004380090EA020F05D054EA000C04BF1946104692
:1004480030BD91EA030F1EBF0021002030BD5FEAD6
:10045800545C05D14000494128BF41F0004130BDFE
:1004680014F580043CBF01F5801130BD01F0004552
:1004780045F0FE4141F470014FF0000030BD7FEAC5
:10048800645C1ABF194610467FEA655C1CBF0B46C0
:10049800024650EA013406BF52EA033591EA030FD7
:1004A80041F4002130BD00BF90F0000F04BF0021CF
:1004B800704730B54FF4806404F132044FF0000502
:1004C8004FF0000150E700BF90F0000F04BF00217B
:1004D800704730B54FF4806404F1320410F00045E1
:1004E80048BF40424FF000013EE700BF42004FEADC
:1004F800E2014FEA31014FEA02701FBF12F07F4359
:1005080093F07F4F81F06051704792F0000F14BF55
:1005180093F07F4F704730B54FF4607401F0004599
:1005280021F0004120E700BF50EA010208BF7047F0
:1005380030B54FF000050AE050EA010208BF7047E5
:1005480030B511F0004502D5404261EB41014FF44E
:10055800806404F132045FEA915C3FF4DCAE4FF052
:1005680003025FEADC0C18BF03325FEADC0C18BF39
:10057800033202EBDC02C2F1200300FA03FC20FA8A
:1005880002F001FA03FE40EA0E0021FA02F11444D7
:10059800C1E600BF4FEA4102B2F1E04324BFB3F520
:1005A800001CDCF1FE5C0DD901F0004C4FEAC002E2
:1005B8004CEA5070B2F1004F40EB830008BF20F0C6
:1005C8000100704711F0804F21D113F13872BCBF80
:1005D80001F00040704741F480114FEA5252C2F1D5
:1005E8001802C2F1200C10FA0CF320FA02F018BF1E
:1005F80040F001004FEAC1234FEAD32303FA0CFC71
:1006080040EA0C0023FA02F34FEA4303CCE77FEAFF
:10061800625307D150EA01331EBF4FF0FE4040F449
:100628004000704701F0004040F0FE4040F40000F8
:10063800704700BF4FF0FF0C1CEAD0521EBF1CEAE7
:10064800D15392EA0C0F93EA0C0F6FD01A4480EA48
:10065800010C400218BF5FEA41211ED04FF0006331
:1006680043EA501043EA5111A0FB01310CF000405D
:10067800B1F5000F3EBF490041EAD3715B0040EA83
:10068800010062F17F02FD2A1DD8B3F1004F40EB53
:10069800C25008BF20F00100704790F0000F0CF026
:1006A800004C08BF49024CEA502040EA51207F3AEA
:1006B800C2BFD2F1FF0340EAC250704740F40000C5
:1006C8004FF00003013A5DDC12F1190FDCBF00F0B6
:1006D80000407047C2F10002410021FA02F1C2F164
:1006E800200200FA02FC5FEA310040F1000053EA00
:1006F8004C0308BF20EADC70704792F0000F00F04E
:10070800004C02BF400010F4000F013AF9D040EA53
:100718000C0093F0000F01F0004C02BF490011F4E7
:10072800000F013BF9D041EA0C018FE70CEAD153E5
:1007380092EA0C0F18BF93EA0C0F0AD030F0004C65
:1007480018BF31F0004CD8D180EA010000F0004019
:10075800704790F0000F17BF90F0004F084691F0D7
:10076800000F91F0004F14D092EA0C0F01D1420211
:100778000FD193EA0C0F03D14B0218BF084608D1DA
:1007880080EA010000F0004040F0FE4040F4000024
:10079800704740F0FE4040F4400070474FF0FF0CB7
:1007A8001CEAD0521EBF1CEAD15392EA0C0F93EAFE
:1007B8000C0F69D0A2EB030280EA010C49024FEA50
:1007C800402037D04FF0805343EA111143EA101309
:1007D8000CF000408B4238BF5B0042F17D024FF4C1
:1007E800000C8B4224BF5B1A40EA0C00B3EB510F9C
:1007F80024BFA3EB510340EA5C00B3EB910F24BF85
:10080800A3EB910340EA9C00B3EBD10F24BFA3EB09
:10081800D10340EADC001B0118BF5FEA1C1CE0D1D1
:10082800FD2A3FF650AF8B4240EBC25008BF20F084
:10083800010070470CF0004C4CEA50207F32C2BFD8
:10084800D2F1FF0340EAC250704740F400004FF075
:100858000003013A37E792F0000F00F0004C02BFA6
:10086800400010F4000F013AF9D040EA0C0093F070
:10087800000F01F0004C02BF490011F4000F013BCA
:10088800F9D041EA0C0195E70CEAD15392EA0C0F32
:1008980008D142027FF47DAF93EA0C0F7FF470AF6A
:1008A800084676E793EA0C0F04D14B023FF44CAFAD
:1008B80008466EE730F0004C18BF31F0004CCAD142
:1008C80030F000427FF45CAF31F000437FF43CAF7E
:1008D8005FE700BF002301461A46184600F042B8F9
:1008E80038B50A4C0A4D641BA4100AD004F18043A1
:1008F800013B05EB8305013C55F804399847002C6A
:10090800F9D1BDE8384000F0C9BE00BFD4160008D0
:10091800D016000870B50F4E0F4D761BB61018BFD5
:10092800002405D0013455F8043B9847A642F9D174
:100938000A4E0B4D761B00F0ABFEB61018BF002414
:1009480006D0013455F8043B9847A642F9D170BD4A
:1009580070BD00BFC8160008C8160008D0160008E9
:10096800C81600082DE9F047254C2568D5F84841F8
:100978000646884692469946C4B360681F2817DC25
:10098800431C76B104EB80050122C5F888A0D4F891
:10099800881182401143022EC4F88811C5F80891C5
:1009A8001ED00230636044F820800020BDE8F08744
:1009B800144B03B34FF4C870AFF300800446D0B1B2
:1009C800D5F84831002780E88800C5F848413846FE
:1009D8000123C4F88871C4F88C71002EE1D0D1E7E6
:1009E800D4F88C110A43C4F88C21DAE705F5A6740B
:1009F800C5F84841C1E74FF0FF30BDE8F08700BFB8
:100A0800C016000800000000002070472DE9F047DC
:100A18008CB0054600F0C4F9DFF8849000244FF04C
:100A2800000804AE285DFFF74FFD82460F46424698
:100A38004B4650463946FFF7FBFBFFF7ABFD4246F6
:100A48004DF824004B46504607F10041FFF7EEFBF6
:100A5800FFF7A0FD46F824000134042CE2D100F091
:100A68006DF9002408AF56F824105DF82400FFF74C
:100A7800E1FD47F824000134042CF4D100F066F9B4
:100A880000F0A4F900217B5C6B5401311029FAD1E4
:100A98002A46722000F07CF800200CB0BDE8F087F0
:100AA8000000F03F08B500F0DFF800F0F7F800F0BC
:100AB80031F900F065F8064A1021702000F04AF874
:100AC800044A0021782000F045F800F083F8FCE79C
:100AD800150A0008110A00080120704770B5013195
:100AE80013469C1AA04201DC002070BD0D7811F855
:100AF800014CA5F13006F6B2092E0CD81E70A4F1EF
:100B08003005EEB2092E15D81C7844EA05141C707D
:100B180002310133E5E7A5F14106052E02D8373D3C
:100B28001D70ECE7A5F16106052E01D9012070BD05
:100B3800573DF5E7A4F14105052D02D8A4F1370585
:100B4800E2E7A4F16105052DF0D81D78573C45EA88
:100B58000414DCE730B5094D2B680F2B0BDCBF29DB
:100B680009D80C2404FB035401332071A160E2600E
:100B78002B60002030BD012030BD00BF4C04002098
:100B8800024A00217620FFF7E5BF00BFE10A00080E
:100B98002DE9F04115460F4600F0F2F80C4E2C46B0
:100BA800631B9F4204DC0A20BDE8F04100F0E8B86E
:100BB800A04614F8013B1B09F05C00F0E1F898F836
:100BC800003003F00F03F05C00F0DAF8E8E700BF4C
:100BD800B01600082DE9F041224DADF5127D00F068
:100BE800BDF82B6800242A1D0C219C4204DB08D187
:100BF8000DF5127DBDE8F08101FB04F6B65C864276
:100C080024D10C27002607FB04570DF1C808BB6840
:100C1800B6EB430F1CD300F0A1F80A2801D00D2829
:100C2800E6D10C2303FB045402AA32A9A068FFF7FB
:100C380055FF0028DCD1E36802A8984701AA8DF87F
:100C4800040001217A20FFF7A3FFD1E70134CCE7A4
:100C580000F084F80A28CBD00D28C9D006F808007F
:100C68000136D4E74C04002010B592B003230024C9
:100C7800069306A84FF4A023079309940D9400F057
:100C8800B9F80F2301930521012301A802930394C6
:100C98000494059400F042FA12B010BD30B589B042
:100CA8004FF4C063039302230025164C0493069364
:100CB80001220723019505920793236B12481343DA
:100CC8002363236B1340019303A9019B00F0BEFA31
:100CD8000E480F4A02954FF4164380E80C000C2387
:100CE8008560C560056185614361636C43F01003ED
:100CF8006364636C03F010030293029B00F08CFBA7
:100D080009B030BD003802400000024068050020EC
:100D1800001001407FB54FF48053019301230293E3
:100D28000023039301A902230348049300F08EFAD9
:100D380007B05DF804FB00BF0000024001224FF439
:100D48008051014800F062BB0000024000224FF4CD
:100D58008051014800F05ABB0000024013B5074C0F
:100D680041F2883301220DF10701204600F015FCFD
:100D78000028F5D19DF8070002B010BD68050020D5
:100D880007B502A941F2883301F8010D0122034891
:100D980000F0C0FB03B05DF804FB00BF680500204D
:100DA800084B094AD3F888101164D3F8882042F414
:100DB8007002C3F88820D3F8882042F47002C3F880
:100DC8008820704700ED00E010050020034B044A1E
:100DD800196CC2F8881000221A64704710050020A8
:100DE80000ED00E0024B1868421C1A60704700BF13
:100DF800540500200368F7B5DC0701463BD40B68AF
:100E0800980700F186800B681B0700F1D1800B68FA
:100E18005F072AD5002301938E4B8F4C1A6C42F042
:100E280080521A641B6C03F080530193019B236862
:100E380043F480732360FFF7D5FF05462368DA057E
:100E480040F1D8808B68834C012B40F0DA80236F07
:100E580043F001032367FFF7C5FF7E4C054641F2C7
:100E68008836236F9B0740F1ED808A69002A40F09D
:100E7800F980002015E0774B9A6802F00C02042AEA
:100E880007D09A6802F00C02082A0CD15B685A0253
:100E980009D5704B1B689B03B1D54B68002BAED1AD
:100EA800012003B0F0BD4B686A4CB3F5803F11D107
:100EB800236843F480332360FFF794FF654C0546AD
:100EC80023689F039BD4FFF78DFF401B6428F7D945
:100ED8000320E6E7B3F5A02F04D1236843F4802369
:100EE8002360E5E7226822F480322260226822F437
:100EF80080222260002BDFD1FFF774FF05462368AC
:100F08009E037FF57CAFFFF76DFF401B6428F6D981
:100F1800DEE7504B9A6812F00C0F07D09A6802F07F
:100F28000C02082A16D15B685D0213D4494B1A6873
:100F3800940702D5CA68012AB2D11C68F82292FA2D
:100F4800A2F2B2FA82F00A69824024F0F800024361
:100F58001A6058E7CA68414BDAB101221A60FFF7F4
:100F680041FF3C4C0546236898070CD52068F823B8
:100F780093FAA3F3B3FA83F20B69934020F0F802D3
:100F8800134323603FE7FFF72DFF401B0228EAD9F0
:100F98009EE71A60FFF726FF2E4C054623689A073E
:100FA8007FF531AFFFF71EFF401B0228F6D98FE708
:100FB8004A692B4B7AB101221A60FFF713FF254CBF
:100FC8000546636F9E073FF522AFFFF70BFF401BF7
:100FD8000228F6D97CE71A60FFF704FF1D4C054686
:100FE800636F98077FF513AFFFF7FCFE401B0228DD
:100FF800F6D96DE7FFF7F6FE401B02287FF61EAF15
:1010080066E7052B04D1236F43F0040323671EE72B
:10101800226F22F001022267226F22F00402226767
:10102800002B7FF418AFFFF7DDFE41F28836054646
:10103800236F9F077FF519AFFFF7D4FE401BB0421F
:10104800F6D945E7FFF7CEFE401BB0427FF609AF61
:101058003EE700BF003802400070004000004742F1
:10106800800E47422B4CA36803F00C03082B3FF477
:1010780017AF294D0023022A2B603ED1FFF7B2FE9D
:1010880006462368980132D447F6C07797FAA7F73F
:101098004FF44032B7FA87F792FAA2F24FF0706035
:1010A800B2FA82F690FAA0F00A6ACB6913434A6A48
:1010B80002FA07F78A6A5208013AB2403B431343DF
:1010C800CA6AB0FA80F002FA00F0034363600123B1
:1010D8002B60FFF787FE0F4904460B689A013FF51E
:1010E800C8AEFFF77FFE001B0228F6D9F0E6FFF72F
:1010F80079FE801B0228C4D9EAE6FFF773FE014691
:1011080023689B017FF5B5AEFFF76CFE401A0228F5
:10111800F6D9DDE60038024060004742F8B5494B91
:101128001A6802F00F028A4205461AD32A68900705
:1011380020D4D20726D4434B1A6802F00F029142FA
:1011480070D32868430775D410F0080008D03E4AC9
:101158002969936823F4604343EAC103936000203C
:10116800F8BDCAB21A701B6803F00F039942DDD0AC
:101178000120F8BD3448AC68836823F0F0032343AA
:101188008360D6E76A68304B012A1DD11B6813F4C7
:10119800003FEDD02C4CA36823F003031343A36056
:1011A800FFF720FE6B68012B064641F2883715D100
:1011B800A36803F00C03042BBDD0FFF713FE801BBC
:1011C800B842F5D90320F8BD901E01281B6802D843
:1011D80013F0007FDDE713F0020FDAE7022B0AD1E4
:1011E800A36803F00C03082BA5D0FFF7FBFD801BB9
:1011F800B842F5D9E6E7032B0FD1A36803F00C0337
:101208000C2B98D0FFF7EEFD801BB842F5D9D9E733
:10121800FFF7E8FD801BB842D4D8A36813F00C0F81
:10122800F6D188E7CAB21A701B6803F00F03994217
:101238009ED186E7044AE968936823F4E0530B4398
:10124800936081E7003C0240003802402DE9F04FEE
:1012580085B00B68DFF8AC81684ADFF8AC91019380
:1012680000234FF0010E019C0EFA03FE0EEA04065D
:10127800B64540F0AE804C6824F01007022F16D116
:101288004FEAD30A00EB8A0A03F0070BDAF820507A
:101298004FEA8B0B4FF00F0C0CFA0BFC25EA0C0CE9
:1012A8000D6905FA0BF545EA0C05CAF820504FEA16
:1012B800430A0325D0F800B005FA0AF5ED4304F017
:1012C800030C0BEA050B0CFA0AFC013F4CEA0B0C69
:1012D800012FC0F800C011D8876807EA050BCF684E
:1012E80007FA0AFC4CEA0B078760476827EA0E0EE4
:1012F800C4F300179F4047EA0E074760C7683D40A0
:101308008F6807FA0AF73D43C560E50061D54FF0DD
:10131800000BCDF80CB0D8F84470394D47F480472D
:10132800C8F84470D8F8447007F480470397039FBF
:1013380023F0030707F1804707F59C3703F0030CF8
:10134800D7F808A04FEA8C0C4FF00F0E0EFA0CFEDF
:10135800A8422AEA0E0E43D005F58065A84241D07E
:1013680005F58065A8423FD005F58065A8423DD0C7
:1013780005F58065A8423BD048453BD005F500659A
:10138800A84239D005F58065A84214BF082507256D
:1013980005FA0CF545EA0E05BD601568F74314F427
:1013A800803F0CBF3D4035431560556814F4003F3D
:1013B8000CBF3D4035435560956814F4801F0CBF41
:1013C8003D4035439560D568A40254BF3D40354340
:1013D800D5600133102B7FF444AF05B0BDE8F08F22
:1013E8005D46D5E70125D3E70225D1E70325CFE7F9
:1013F8000425CDE70525CBE70625C9E7003C0140D4
:101408000000024000380240001402400AB1816125
:1014180070470904FBE7000030B5002874D090F845
:10142800393003F0FF020BB980F838200168C26830
:101438000569C469242380F83930CB6823F4005344
:10144800CB600B6923F4405313430B618368CA686C
:101458002B43456922F416422B4322F00C02234306
:101468001343CB604B69826923F440731343B4F58B
:10147800004F4B614468254B36D199424FEA4404EA
:10148800234AB2FBF4F24FF06404B2FBF4F503D044
:1014980003F58063994223D104FB1522D30032332C
:1014A800B3FBF4F303F007025B0002EB051203F44D
:1014B800F87313448B600B6923F490430B614B69F9
:1014C80023F02A034B61CB6843F40053CB602022FE
:1014D8000023C36380F8392080F83A20184630BDCD
:1014E80004FB1523DB00DAE7A2006424084BB3FBF6
:1014F800F2F2B2FBF4F504FB15231B013233B3FB04
:10150800F4F303EB0513D5E7012030BD00100140CB
:101518000080FC0A90F83930202B3CD1002938D0C3
:10152800002A36D090F83830012B34D0012380F8C7
:1015380038300023C363212380F839308284C28481
:10154800C28C036892B252B91A685206FCD520239D
:1015580080F83930002380F8383018467047C28C3C
:10156800013A92B2C2848268B2F5805F0AD11A68E1
:101578001206FCD50A88C2F308025A60036933B917
:101588000231DDE71A681206FCD50A785A60013183
:10159800D6E7012070470220704790F83A30202B98
:1015A80010B542D100293ED0002A3CD090F83830FE
:1015B800012B3AD0012380F838300023C36322235B
:1015C80080F83A308285C285C38D9BB233B9202218
:1015D80080F83A2080F83830184610BDC38D013B9A
:1015E8009BB2C3858368B3F5805F03680ED11A6820
:1015F8009406FCD502695B6822B9C3F3080321F895
:10160800023BE1E7DBB221F8013BDDE71A6892060D
:10161800FCD504695B684A1C14B90B701146D3E702
:1016280003F07F03F9E7012010BD022010BD000080
:10163800002103E00B4B5B58435004310A480B4B25
:1016480042189A42F6D30A4A02E000231360043291
:10165800084B9A42F9D3AFF30080FFF75BF9FFF725
:1016680021FAFEE7D416000800000020300400200C
:1016780030040020A8050020FEE70000024B13B14B
:101688000248FFF727B9704700000000E908000882
:10169800F8B500BFF8BC08BC9E467047F8B500BF57
:0816A800F8BC08BC9E46704727
:1016B0003031323334353637383941424344454688
:0816C0000800002043000000B7
:0816C80085160008F501000879
:0416D000CD01000840
:1016D400080000200000000000000000F4020020C8
:1016E4005C030020C4030020000000000000000090
:1016F40000000000000000000000000000000000E6
:10170400000000000000000000000000C4160008F3
:1017140000000000000000000000000000000000C5
:1017240000000000000000000000000000000000B5
:1017340000000000000000000000000000000000A5
:101744000000000000000000000000000000000095
:101754000000000000000000000000000000000085
:101764000000000000000000000000000000000075
:101774000000000000000000000000000000000065
:1017840001000000000000000E33CDAB34126DE602
:10179400ECDE05000B00000000000000000000006B
:1017A4000000000000000000000000000000000035
:1017B4000000000000000000000000000000000025
:1017C4000000000000000000000000000000000015
:1017D4000000000000000000000000000000000005
:0400000508001639A0
:00000001FF
